:020000040800F2
:1000000070D00120955500088D2100088F2100082F
:1000100091210008932100089521000800000000AC
:10002000000000000000000000000000C502000801
:10003000972100080000000009030008815400080F
:10004000AF550008AF550008AF550008E77300082A
:10005000AF550008AF550008A3680008BB6800084A
:10006000D3680008EB68000803690008AF55000872
:10007000AF550008AF550008AF550008AF55000850
:10008000AF550008AF550008AF550008AF55000840
:10009000AF550008AF550008AF5500081B690008B0
:1000A000AF550008AF550008AF550008AF55000820
:1000B000AF550008AF550008AF550008AF55000810
:1000C000AF550008AF550008AF550008AF55000800
:1000D000AF5500084F6100086361000879610008AE
:1000E0006D69000809740008AF550008AF55000895
:1000F000AF550008AF550008AF550008AF550008D0
:10010000AF550008832C0108AF550008AF55000813
:1001100091610008A9610008AF550008AF550008BB
:10012000AF550008AF550008AF550008A32C0108D3
:10013000AF550008AF550008AF550008AF5500088F
:10014000AF550008AF550008AF550008AF5500087F
:10015000AF550008AF550008AF550008BD61000855
:10016000AF550008AF550008AF550008AF5500085F
:10017000AF550008AF550008AF550008AF5500084F
:10018000AF550008AF55000800F002F800F08AF8FB
:100190000AA090E8000C82448344AAF10107DA45E2
:1001A00001D100F07FF8AFF2090EBAE80F0013F0AA
:1001B000010F18BFFB1A43F001031847AC77010089
:1001C000CC7701000A444FF0000C10F8013B13F00B
:1001D000070408BF10F8014B1D1108BF10F8015BA0
:1001E000641E05D010F8016B641E01F8016BF9D193
:1001F00013F0080F1EBF10F8014BAD1C0C1B09D1EA
:100200006D1E58BF01F801CBFAD505E014F8016B5B
:1002100001F8016B6D1EF9D59142D6D370470000ED
:100220000023002400250026103A28BF78C1FBD8FF
:10023000520728BF30C148BF0B607047662915F0D0
:10024000D18303681B0A28BF41F08001642913F0A1
:100250007B82752913F07882782913F0EF82F529D3
:1002600013F0AE82632914F0C881732914F0CD8194
:10027000002070471FB515F0B0FB9DE8030013F098
:10028000B3FE14F071FA04000020002115F0E0F92B
:10029000401C60600020002115F0C4F9E0601FBD23
:1002A00010B510BD14F066FD1146FFF7E3FF00F036
:1002B00081FF14F084FD03B4FFF7F2FF03BC14F0D8
:1002C000B1FD0000234B19680868B0E8F04F80F3D7
:1002D00009884FF0000080F311887047000000008B
:1002E00003480068006880F3088862B600DF00BF3A
:1002F00008ED00E0DFF80C00016841F470010160D6
:10030000704700BF88ED00E0EFF30980114B1A68D9
:100310001EF0100F08BF20ED108A20E9F04F10608A
:1003200008B54FF0500080F3118804F00AF84FF040
:10033000000080F31188BDE8084019680868B0E83B
:10034000F04F1EF0100F08BFB0EC108A80F3098840
:10035000704700BF34020020EFF311804FF05001CE
:1003600081F31188704780F311887047EFF305809F
:100370007047000070B506460024FE4D09E00A20D3
:1003800003F0C7FFA87A012805D0E87A012802D037
:10039000641CB442F3D970BDF649486D08B1002021
:1003A0007047F54A04201080012010804865487588
:1003B000704770B50322F1A1F14813F092FC0025BB
:1003C000EC4C012608B9E673A5650322EDA1EC48C3
:1003D00013F087FC08B92674E5650322EAA1E84812
:1003E00013F07FFC08B9667425660322E7A1E44890
:1003F00013F077FC08B9A67465660322E4A1E0480F
:1004000013F06FFC18B9E3A1E34805F060FEE07B50
:1004100008B1FFF7C1FF207C08B101F003FE607C4A
:1004200008B101F0F2FDA07C08B101F0E1FDE07B34
:1004300020B1A06D00EBD0704010A066207C20B1F0
:10044000E06D00EBD0704010E066607C08B1206E7B
:100450002067A07C002801D0606E606770BD10B579
:10046000C44CA078D0B10021A170E06B012201281A
:1004700005D0022808D003280BD068B10EE0E27343
:10048000A165627421660BE0E273A165A2746166E6
:1004900006E06274216601E0A2746166E07B08B147
:1004A000FFF77AFF207C08B101F0BCFDA07C08B109
:1004B00001F09EFDE07B20B1A06D00EBD0704010FC
:1004C000A066207C20B1E06D00EBD0704010E066AB
:1004D000607C08B1206E2067A07C002801D0606E8F
:1004E000606710BDF0B4A64CDDE90456403460717D
:1004F0002171227066722572E3712046F0BC0021E2
:1005000006F028BB2DE9F84FA44E0121304601F03A
:10051000B4FF01240025E8B3A8460221374630463F
:1005200001F0ABFFB8B32E461021384601F0A5FF0D
:1005300090B32F46DFF868922021484601F09DFFD6
:1005400058B300954021484601F097FF30B3AB46C1
:100550008021CA46484601F090FF70B3A9464FF487
:100560008071504601F089FF40B3AA464FF4805194
:100570008C4801F082FF00B12C464FEA890204EB5F
:100580004A0102EBCB000144009801EB001000EBA4
:10059000471004E00BE00CE00DE010E011E000EB90
:1005A000861101EBC81073494870BDE8F88FA0466A
:1005B000B3E72646B8E72746BCE704E005E0009429
:1005C000C0E7A346C4E7A146C9E7A246CEE7002498
:1005D0008CB02346CDE9004422464FF400416F48D9
:1005E00005F0B6F90021CDE900110B460A4620219D
:1005F0006A4805F0ADF90021CDE900110B460A4625
:100600004021664805F0A4F90021CDE900110B4610
:100610000A468021614805F09BF9002201216148CA
:1006200006F040F8012220215E4806F03BF8012246
:1006300040215C4806F036F800221021594806F0A7
:1006400031F800220821574806F02CF80122110247
:10065000544806F027F801260320CDE90060002366
:100660003246F1024F4805F073F94E49F002088313
:1006700000200321CDE900014B4D03460122510228
:10068000284605F065F968156883FFF73BFF394D8B
:1006900046A105F1F8006A7812F0F2FF042110205B
:1006A0002E6504F0D3FF05F1D501002005F081F897
:1006B000002140A2084605F01DF847A202210020B3
:1006C00005F018F82E4849A1A0382A6D12F0D8FF7D
:1006D0002B4A0321A03A002005F00CF84FF4FA68E9
:1006E000404603F016FE04F09FFF444F0DF1140C3A
:1006F000B8797B7A3A7AF9798CE80F00B8780DF1FD
:10070000040C7B793A79F9788CE80F0078780090BE
:100710001B483B7805F1F80239A1A03812F0B0FF70
:10072000174A0021A03A084604F0E4FF404603F0CF
:10073000F0FD04F079FF05F1380907A899F80110D8
:10074000B5F822C099F8033099F8022080E80E101D
:10075000F87A0DF10C0C99F800307A7B397B8CE833
:100760000F00387CBA7A797C8DE80700FB7BBA7B76
:1007700032A17FE000000020180802405231300012
:10078000CC0600205232300052313100523231005A
:10079000523030004F4B000000480040000C024037
:1007A00000040240000002400010024041434D2579
:1007B000303364002D2D2D2D544953382D50524F78
:1007C0002D2D2D2D43726561727465627952264418
:1007D0002D5449530000000057656C636F6D2D2D3B
:1007E0003E3E5449532D4F530000000054696D653F
:1007F000206F7574204F533A25640000083601209D
:1008000041434D3A2573202D3E49500A0D25642E53
:1008100025642E25642E25640A0D253032582D2599
:100820003032582D253032580A0D253032582D25BA
:100830003032582D253032580000000047573A25F5
:10084000642E25642E25642E25640A0D4E657425BC
:10085000642E25642E25642E25640A0D53563A25F0
:10086000642E25642E25642E25640D0A504F5254A3
:100870003A256400F94812F003FF0021F74A0846C0
:1008800004F038FF404603F044FD04F0CDFE0020A4
:10089000E871A8710F200123CDE900601A461946BE
:1008A0001846FFF71FFEEE48B1020180C114018017
:1008B000EC494AF6AA200860DFF8A0B305F1CE0A99
:1008C0000BF1600BA87B002879D0AC73687D28B150
:1008D000401CC0B26875142800D96C75686D18B9D1
:1008E000E1A1E44805F0F3FB686D012803D1E2A122
:1008F000E04805F0ECFB686D022803D1E1A1DD487A
:1009000005F0E5FB687D0028E148C06B90F87C00AD
:1009100013D0DF4A012802F178020CD0DDA1CF48C4
:1009200012F0AEFE0021CD4A084604F0E3FEA87D99
:1009300001280BD030E0E0A1F1E7D54A012802F10F
:10094000780201D0E6A1EAE7F2A1E8E7C3480DF199
:10095000080CE0300178477A037AC2798CE88E007F
:1009600001794079F94BCA4ACDE900017832F8A102
:10097000A3F1AE0012F084FEC54B99F80310603B62
:100980006A8C8DE80E0099F8023099F8012099F8E8
:100990000010F7A005F0ECFCE87802280FD1EC700D
:1009A00004F042FE686C0090F3A1AC48AB6C2A6C7A
:1009B00012F066FE0021A94A084604F09BFEA879C1
:1009C00001287CD1687D0028FBD12E716E719BF8C7
:1009D00004208AF800209BF805308AF801309BF843
:1009E00006C08AF802C09BF807708AF803709BF86B
:1009F00008808AF804809BF809808AF805809BF8B3
:100A00000A808AF806809BF80100082806D1CF48A2
:100A1000CDE900C7E0A11E3812F032FE9BF80100BC
:100A20000B2817D19AF803100DF1040C9AF80670F0
:100A30009AF805309AF804208CE88E009AF8021093
:100A40000091C2489AF801309AF80020D7A11E38C8
:100A500012F016FE052003F05CFCBC481E3801F0C5
:100A6000EDFA48B1AE72EE72EE73AC65AE746C66C0
:100A70002C716C71EE7548E0287968B1052003F09F
:100A800048FCB24AD1A11E3AB04812F0F9FDAF4A73
:100A90000321002004F02EFE6879B0B3AB480DF1BD
:100AA000080CBE380178477A037AC2798CE88E0048
:100AB000A64B774A01791E3B4079783200E040E04E
:100AC000CDE90001C2A1A3F1900012F0D9FD704B55
:100AD00099F80310603B6A8C8DE80E0099F802309B
:100AE00099F8012099F80010A1A005F041FC05201B
:100AF00003F00FFC954AB5A11E3A944812F0C0FDD0
:100B0000924A0321002004F0F5FD4FF49670FFF7A0
:100B100031FCAC71A87A30B1AC72FFF74AFC0A2004
:100B2000FFF728FC00E02C71E87A30B1EC72FFF797
:100B300096FC0A20FFF71EFC00E06C71AC71EC74AF
:100B40002C75E879012801D1687D18B1287D01282C
:100B500078D055E12E716E719AF800209AF8011044
:100B6000CDE9001279489AF802309AF803208AA158
:100B70001E3812F085FD142003F0CBFB73481E389D
:100B800001F05CFA48B1AE72EE72EE73AC65AE7411
:100B90006C662C716C71EE7546E0287968B10520A1
:100BA00003F0B7FB694A89A11E3A684812F068FD54
:100BB000664A0321002004F09DFD6879A0B36348D4
:100BC0000DF1080CBE380178477A037AC2798CE8B7
:100BD0008E00017940795D4B2D4ACDE900011E3B25
:100BE00078327BA1A3F1900012F04AFD284B99F8CE
:100BF0000310603B6A8C8DE80E0099F8023099F87A
:100C0000012099F800105AA005F0B2FB052003F06E
:100C100080FB4E4A6DA11E3A4C4812F031FD4B4A02
:100C20000321002004F066FD4FF49670FFF7A2FB4D
:100C3000EC71A87A38B1AC72FFF7BBFB0A20FFF762
:100C400099FB01E0D9E02C71E87A30B1EC72FFF742
:100C500006FC0A20FFF78EFBCBE0C9E02C06002043
:100C6000180C0240003000402F4C45443030303EDC
:100C70000D0A0000001001402F4C45443030313E39
:100C80000D0A00002F4C45443030323E0D0A000062
:100C9000800000204465766963653A25730A0D4E2D
:100CA0006F74436F6E6E6563742E0A0D4761544511
:100CB0003A4F70656E6564004465766963653A25F0
:100CC000730A0D436F6E6E65637465642E2E2E2E4F
:100CD0000A0D476154453A4F70656E656400000027
:100CE0004465766963653A25730A0D4E6F74436FE8
:100CF0006E6E6563742E0A0D476154453A436C6FFE
:100D000073650A0D49443A2E2E2E2E2E2E2E2E2E8F
:100D10002E2E2E004465766963653A25730A0D43CD
:100D20006F6E6E65637465642E2E2E2E0A0D4761FC
:100D300054453A436C6F73650A0D49443A2E2E2E82
:100D40002E2E2E2E2E2E2E2E2E000000CA07002014
:100D500028322C25732C25732C312C2C25642D2521
:100D6000642D25642F25642D25642D25642900001C
:100D7000736572766572000047696144763A25644E
:100D80000A0D536F6475746B3A25640A0D4C756FC8
:100D90007464693A25640000253032582530325891
:100DA00025303258253032580000000025303258A6
:100DB00025303258253032582530325825303258B7
:100DC00025303258253032580000000025730000CD
:100DD00028312C25732C25732C312C2C25642D25A2
:100DE000642D25642F25642D25642D25642900009C
:100DF0006C71EC71EC742C7508E02C75FFF72FFB0F
:100E0000E87C012802D1EC74FFF7D3FAA86D00EB5F
:100E1000D0704010A866296D88420ED3FE48042188
:100E2000018006806C65EC73AC65AC66AC71EC71EE
:100E30002C716C716420FFF79DFAE86D00EBD070A7
:100E40004010E866296D88420CD3F34806806C6533
:100E50002C74EC65EC66AC71EC712C716C716420D7
:100E6000FFF788FA286E286704280DDBEB494FF45A
:100E7000806008806C742C662C67686D20B92C71BA
:100E80006C716420FFF776FA686E686704280DDBE2
:100E9000E2484FF400610180AC746C676C66686D69
:100EA00020B92C716C716420FFF764FADC494AF6B2
:100EB000AA20086006E50146DA4805F008B9FFF700
:100EC00021FBD949A1F12C00CA7840780244CA70AC
:100ED000D43100EB4000A1F1CC0301EB40001A1F1C
:100EE000D43905F085F910B9D0A0FFF7E4FF502000
:100EF00005F0F7F91521D34805F064FAD14801212E
:100F0000B03805F06EFAC64D4AF6AA242C6005F0FA
:100F100013FAFBE7C24C4AF6AA252560C24E5436A6
:100F2000F06B90F87C0001284FF0030006D002F02F
:100F3000A2FF322003F0EDF92560F1E702F09BFFFC
:100F40006420F7E730B500231C468A0E20D11A280A
:100F50001ED1084601224008C50700D0641C521C5F
:100F60000C2AF8D944F300040122641C4008C50788
:100F700000D05B1C521C0C2AF8D903F00100B0EB26
:100F8000516F05D101F00100A04201D1012030BD17
:100F9000002030BD2DE9F041F0B304F01CF9AA4A5D
:100FA000A14E52F82010491C2C3E42F82010F07E31
:100FB00006F1800410B1E068401CE060216F606FB2
:100FC000F07EFFF7BFFF0025012748B37576216F3C
:100FD000606F42084FEA310020676267206F616FDF
:100FE00020F07F4020676567206F616F20F07F40B1
:100FF00020676567206F616F83B2206F616F4FEA72
:101000001042914891A100F1480012F039FB0021F3
:10101000E560216761670AE0FFE7FFF79DF9FEE7FA
:10102000E068052805D30020E56020676067F57655
:101030007776BDE8F081F0B500252E46222827D12D
:1010400010461946012449084FEA3000C70700D06E
:10105000761C641C102CF6D946F3000701247F1C73
:1010600049084FEA3000C60700D06D1C641C102CE4
:10107000F6D905F00100002180EA530081EA01035E
:10108000184305D102F00100474049400F4301D009
:101090000020F0BD0120F0BD70B5E8B304F09BF86E
:1010A0006949614D51F82020521C2C3D41F8202007
:1010B000A87E05F1800410B1A068401CA060A26E5B
:1010C000E36EA87EFFF7B7FF0021012240B3A36EB5
:1010D000E06E40084FEA3303A366E066A06EE36E5D
:1010E000A066E166A06EE36E4F4B4FEA102603F157
:1010F000A20318705E704FEA10469E704FEA1060AF
:10110000D8700B46A366A160E366A9762A76687D4F
:10111000002800D1EA7170BDFFE7FFF71DF9FEE777
:10112000A0680528F7D30023A366A160E366A9762B
:101130002A76F0E710B570B104F04DF8424951F845
:101140002020521C41F820203749BDE810402031B2
:10115000414804F0BCBFFFF7FFF8FEE710B530B31D
:1011600004F039F8384A304C52F820102C3C491C15
:1011700042F820100120A073002102F5847005F0D0
:1011800056FEE07B10B1A06D401CA065207C10B124
:10119000E06D401CE065607C10B1206E401C206654
:1011A000A07C002802D0606E401C606610BDFFF776
:1011B000D3F8FEE77FB5AFF25B00012300901A463B
:1011C0004FF4FA71254803F0D1FF254D6860AFF266
:1011D0009B000090022301229621204803F0C6FFC5
:1011E000A860AFF24B1000900323012232211B486C
:1011F00003F0BCFFE860AFF26320009004230122FB
:101200003221164803F0B2FF28616868002448B311
:1012100003F0C1F9024626E01A080240180C024009
:1012200000300040004800402C000020544D5F4535
:10123000544845524E45545F496E6974204F4B20C7
:101240000A000000900100200406002077322C25BF
:10125000303375253035750000140140E859010818
:10126000E807002005E0009400231946686803F0B1
:1012700003FFA86840B103F08EF9024600940023F2
:101280001946A86803F0F8FEE86840B103F083F956
:101290000246009400231946E86803F0EDFE4FF47F
:1012A000407001F08BFB00F0CAFF032500230122F0
:1012B0000421FE4ECDE90045304604F049FB0122F1
:1012C000002311463046CDE9004504F041FBF84EBD
:1012D0000122002391023046CDE9004504F038FB9D
:1012E00001220023D1023046CDE9004504F030FB55
:1012F000032002F08FFD0125002300951A462946A0
:101300003046019504F024FB002300951A46022183
:101310003046019504F01CFB002300951A4610216D
:101320003046019504F014FBE24E002300951A4666
:1013300020213046019504F00BFB002300951A464E
:1013400040213046019504F003FB002300951A4626
:1013500080213046019504F0FBFA002300951A46DF
:1013600029023046019504F0F3FA002300951A464D
:101370002903D148019504F0EBFA4FF4E132002142
:10138000CE4804F06BFD4FF416552A460221CC4896
:1013900004F064FD2A460021CA4804F05FFD0020E5
:1013A00005F073FD012005F0A0FE002300940194D8
:1013B00002948022C4A1AFF2A340039402F01CFE69
:1013C00000230094019402948022C4A1AFF2115032
:1013D000039402F011FE00230094019402948022F1
:1013E000C3A1AFF61560039402F006FE03F0A7F860
:1013F000002004B08FE6002586B0A946A846AB467B
:10140000AA462F462E46E3E0BD48047B2A2C00D195
:1014100015B1012D01D0BDE0012509EB08015944AA
:1014200001EB0A003844F0422CD1312C0AD0322C86
:101430000ED0332C12D0342C16D0352C1AD0362C9A
:101440001BD01CE0B9F1000F19D14FF0010916E0D3
:10145000B8F1000F13D14FF0010810E0BBF1000FFD
:101460000DD14FF0010B0AE0BAF1000F07D14FF098
:10147000010A04E01FB9012701E006B90126A049CD
:1014800000200877B9F1010F17D19D4A107F0DF8A0
:101490000040401C1077232C0FD19AA0FFF70BFDC2
:1014A00097490025A9460D776A46AFF2E0619B484F
:1014B00012F0E6F89948FFF7FEFCB8F1010F17D1DA
:1014C0008F4A107F0DF80040401C1077232C0FD15D
:1014D00093A0FFF7F0FC8A490025A8460D776A46DD
:1014E000AFF218718D4812F0CBF88C48FFF7E3FC8F
:1014F000BBF1010F17D1824A107F0DF80040401C4C
:101500001077232C0FD18CA0FFF7D5FC7C49002548
:10151000AB460D776A46AFF24C71804812F0B0F8D6
:101520007E48FFF7C8FCBAF1010F17D1744A107F4B
:101530000DF80040401C1077232C0FD184A0FFF73A
:10154000BAFC6F490025AA460D776A46AFF284714E
:10155000724812F095F87148FFF7ADFC012F17D1D2
:10156000674A107F0DF80040401C1077232C0FD1E4
:101570007DA0FFF7A0FC624900252F460D776A4643
:10158000AFF2B871654812F07BF86448FFF793FC3E
:10159000012E02D0232C17D017E0594A107F0DF8E6
:1015A0000040401C1077232C0FD175A0FFF783FC5F
:1015B000534900266A460E77AFF2F071574812F091
:1015C0005FF85648FFF777FC00254D490020487327
:1015D00071494AF6AA2008604948417B0129F7D1A0
:1015E00012E710B50023464A7F2800D153774B4CB1
:1015F000517F80340529605404D0302901D2491C20
:10160000517710BD232806D0862804D09D2802D00B
:1016100001201072F3E71372F1E710B5384ABD28C4
:1016200001D1002191773D4B917F40335854D878B8
:10163000012310B101280AD00BE0012909D110794A
:1016400054792043547D204305D1937103E002294E
:1016500004D0302901D2491C917710BD5372FAE7AA
:1016600010B52E4A0C46D032AFF6A001204612F03B
:1016700007F8234A2046536A5B1C536212F012FBA0
:1016800080B210BD2DE9F047DFF874901C4D09F1D0
:1016900080090C460646C9F800101746C846204681
:1016A000E96F12F08DFA33463A4677E000080240BF
:1016B000000C0240000402400000024000140140FF
:1016C00000480040001001404C656420426C696E87
:1016D0006B205461736B205265640000457468652B
:1016E000726E65742052756E6E696E67202E2E00C4
:1016F0004D61696E2072756E202E2E2E0000000046
:10170000000000206B657420746875632063687541
:101710006F69206C656E68310A0000004C0600207D
:101720006B65742074687563206368756F69206CDD
:10173000656E68320A0000006B657420746875631A
:10174000206368756F69206C656E68330A0000005D
:101750006B65742074687563206368756F69206CAD
:10176000656E68340A0000006B65742074687563E8
:10177000206368756F69206C656E68350A0000002B
:101780006B65742074687563206368756F69206C7D
:10179000656E68360A00000000300040C8F804009A
:1017A000EDA1F74811F06CFFF548FFF784FBA86A3C
:1017B0004FF00008401CA862404609E0225CF1A1FD
:1017C000EF4811F05DFFEE48FFF775FBA86F401C76
:1017D000A867B842F2DBECA1E94811F051FFE848F4
:1017E000FFF769FB47464C46C5F87880A86F062886
:1017F00032D2DFE800F0031010101625E7A1E04810
:10180000626811F03DFFDE4812F0CCF9E870DC4868
:10181000FFF751FB20E0E1A1D948626811F030FFE9
:10182000F5E7DEA1D648626811F02AFFD448FFF739
:1018300042FBD34800F033FC0A2002F06AFD0BE0C3
:10184000AFF67821CE48626811F01AFFCC48FFF756
:1018500032FBCB4800F003FC0020E96F12F0B0F936
:101860006060A86F401CA8670628BFDBE8780121EC
:10187000012802D0022803D003E02975E97200E0B4
:10188000AF7586F86C10E663BDE8F08710B50446C6
:101890000246C3A1BA4811F0F3FEB948FFF70BFBAB
:1018A000C548C46310BD10B50446006F22460378D6
:1018B00009B1C24900E0C249B14811F0E1FEB048A7
:1018C000FFF7F9FABC48C4638038018C491C0184D5
:1018D00010BD10B504460246BAA1A94811F0D0FEC9
:1018E000A748FFF7E8FAB448C46310BD10B5044632
:1018F0000246BDA1A24811F0C3FEA148FFF7DBFAE2
:10190000AD48C46310BD1FB5069CCDE900230B464E
:1019100002460CB1BBA100E0C5A1994811F0B0FE90
:101920009748FFF7C8FACB4CA079637A227AE1791D
:101930008DE80F0063792279C7A1914811F0A0FECC
:10194000A079637A227AE1798DE80F0063792279B0
:10195000C1A18B4811F094FE94F84C20C7A188488F
:1019600011F08EFE8648FFF7A6FA94F84D20C7A125
:10197000834811F085FE04B08148BDE81040FFF7B0
:101980009ABA704770478C4810B580388A494078B9
:10199000803100EB4000A1F1CC0301EB40001A1FA5
:1019A000D43904F025FC002805D1AFF28070BDE8E1
:1019B0001040FFF780BA10BD10B54068884208D1CA
:1019C000B7A16F4811F05CFE6D48FFF774FA002074
:1019D00010BDC0A16A4811F053FE6948FFF76BFAC9
:1019E000012010BD10B5C0A1654811F049FEBDE849
:1019F00010406348FFF75FBA7FB50D46954904284C
:101A000016DA68B101280BD0022802D003283DD194
:101A100006E0BBA15A4811F033FE5948FFF74BFAD4
:101A20000CB1BEA100E0C5A1284611F029FED3E10A
:101A300006D1CA788878CDE900024B780A7879E037
:101A4000844A0528D26923D0824B06289B6921D07D
:101A5000072821D008283AD009283BD00A283CD0B2
:101A60000B283CD00C283DD00D2842D00E284BD05E
:101A70000F2850D0102855D0112860D0122867D0D8
:101A8000132866D0142865D01528D0D00020B0E4E3
:101A9000B2A159E01A46FBE7BAB100EE103AF8EEEF
:101AA000400A00EE102AB8EE401A80EE810ADFEDFF
:101AB000AC0A20EE200A10EE100A13F01DFF41ECD4
:101AC000100BA8A153EC102B0FE0A8A181E1D1E9E4
:101AD000082309E0D1E90A2306E00A6BD8E7D1E937
:101AE0000E2301E0D1E91023A1A1284611F0C8FD81
:101AF00072E188794C7A0B7ACA798DE81D004B79AE
:101B00000A799DA1284660E14A7C087CCDE9000263
:101B1000CB7B8A7B0EE04A7B087BCDE90002CB7A47
:101B20008A7A07E024484838C2788178CDE90012E3
:101B30004378027898A1284611F0A2FD4CE11E4896
:101B40008038428CAFF6B451284611F099FD43E13C
:101B500028E129E13CE10000526563656976656929
:101B60006E67202564206279746573206F66206437
:101B70006174612066726F6D2025730A0000000099
:101B80004C06002025630000746875206869656E46
:101B90002074616368203A0A0000000025732C005D
:101BA00057652061726520636F6E6E65637465644E
:101BB00020746F2025730A0080000020C87201087D
:101BC00014730108416E206572726F72206F636337
:101BD00075726564206F6E20636F6E6E65637469E5
:101BE0006F6E2025730A0000436F6E6E6563746923
:101BF0006F6E202573206861732073746172746541
:101C0000640A000049503A2025642E25642E25647C
:101C10002E25642061737369676E65642062792084
:101C200044484350207365727665720A00000000D4
:101C300049503A2025642E25642E25642E25643BC8
:101C40002053544154494320495020757365640A18
:101C500000000000083601204D41433A2025303273
:101C6000582D253032582D253032582D25303258F8
:101C70002D253032582D253032580A004C696E6BB4
:101C8000203130304D3A2025640A000046756C6CD6
:101C9000206475706C65783A2025640A00000000A5
:101CA00055736572207769746820626164204950B9
:101CB0002077617320747279696E6720746F206178
:101CC000636365737320746F2077656273697465ED
:101CD0000A000000436F6E6E656374696F6E206169
:101CE0006C6C6F7765640A00436C69656E74206480
:101CF0006973636F6E6E65637465640A000000004B
:101D0000544D5F444953434F5F4C656449734F6E74
:101D1000284C45445F524544290000003C737061E3
:101D20006E20636C6173733D22677265656E223E3F
:101D30004F6E3C2F7370616E3E0000003C7370610B
:101D40006E20636C6173733D22726564223E4F6640
:101D5000663C2F7370616E3E000000002575000028
:101D60000000C842256620252500000030202500FF
:101D7000256C6C7500000000253032582D2530325E
:101D8000582D253032582D253032582D25303258D7
:101D90002D2530325800000025642E25642E256440
:101DA0002E256400CCA114E00021CF4805F03FF8B7
:101DB000CD48C1790478037942798DE81E00427AD2
:101DC000037ACAA1284602F5FA6211F059FC03E031
:101DD000CEA1284611F042FF284611F063FF80B2E1
:101DE00055E670B515460E46002817D1002412E0BE
:101DF00055F82400CBA111F0F3FE50B955F824009A
:101E0000CBA111F0EDFE20B955F82400CAA111F0C4
:101E1000E7FE641CE4B2B442EADBC9A070BD012055
:101E200004F096BAF0B50125C94C87B0012817D047
:101E3000214604F180030A7E496D082868D00026F7
:101E400010287BD020286ED0402877D0B0F5807F36
:101E50005CD1607D002802D0E07D00287ED0AFE01C
:101E6000BC480168090401684FEA816126D4002951
:101E700001684FEA416110DB006800294FEA006009
:101E800005DB002801DB44203EE038203CE0002850
:101E900001DB342038E0232036E0006800294FEAD7
:101EA000006005DB002801DB32202DE030202BE034
:101EB000002801DB362027E0422025E000290168C8
:101EC0004FEA416110DB006800294FEA006005DB42
:101ED000002801DB312017E0392015E0002801DB64
:101EE000352011E041200FE0006800294FEA006032
:101EF00005DB002801DB332006E02A2004E000286F
:101F000001DB372000E043202073657307B0F0BD8C
:101F1000002AFBD00029F9D1996ED86E49184041AA
:101F20001AE00BE0FFE7002AF0D00029EED1986E0E
:101F3000D96E001849419866D96611E0002AE5D0AB
:101F40000029E3D1996ED86E491840419966D86648
:101F5000996ED86E41F00101996600E004E0D86600
:101F6000A07E401CA076D1E75F480DF1080C9038A8
:101F70000178477A037AC2798CE88E00017940793A
:101F8000594B734ACDE900012E33F8327249A3F15F
:101F9000AE0011F075FB052002F0BBF96C4B628CB2
:101FA000203303F11800C1788DE80E008378427861
:101FB00001786948203004F0DBF9A57500F025F8B8
:101FC000206D4000A065E065E6756675A671E67156
:101FD0009CE745489038C168491EC1605C490120B2
:101FE000087081025B4808300180C114018070478D
:101FF000584910B50A314FF40060088054495748D9
:10200000C73104F064F8002010BD524910B50A3100
:102010004FF4806008804E495048C03104F057F8B2
:10202000002010BD4A48416D09B1002070474C4A5C
:1020300001211180022141650120704770B5494D91
:1020400006460024304655F8241011F0C9FD08B1A9
:10205000012070BD641C032CF4DB002070BD1FB593
:102060003B4CB834231F1A1F111F8DE81E000B1F95
:102070000C3A3DA111F0D2FCA4F1380090F83810D0
:1020800090F83420CDE9002190F8303090F82C20E1
:1020900090F8281090F82400FEF724FA1FBD0EB522
:1020A0002B4BA0331A1F111F8DE80E000B1F0C3A8B
:1020B00032A111F0B3FC2649254880310A6AC26377
:1020C000CA6942644A69826489690164C1780129E4
:1020D00000D181700EBD000053544D333246343070
:1020E0003756452D544953009C0700202530346451
:1020F0002D253032642D2530326420253032643A6B
:10210000253032643A253032640000004D6172207F
:10211000203820323031362061742031373A32375E
:102120003A3230006C6564746F67676C650000005C
:102130006C65646F6E0000006C65646F666600001D
:102140002F696E6465782E7368746D6C00000000F2
:1021500000000020100C0240500D00080048004014
:1021600018080240E401002025642D25642D256413
:102170002F25642D25642D256400000025642D2560
:10218000642D25642D25642D256400007047FEE72D
:10219000FEE7FEE7FEE77047704700000CB500223F
:1021A000544900920192086840F4803008604FF46E
:1021B000A043086800F4003001900098401C009093
:1021C000019810B900989842F3D10868800334D57B
:1021D0000120019047484030026842F0805202607E
:1021E0004548026842F440420260424808300268B2
:1021F0000260026842F400420260026842F4A052A7
:102200000260031F3D4A1A600A6842F080720A6049
:102210000A689201FCD53A4940F205720A600168E9
:1022200021F003010160016841F0020101600168D1
:10223000C1F381010229FAD10CBD01920CBD3148D4
:1022400010B5016841F4700101602A48016841F04D
:1022500001010160274A00210832116002682A4BFF
:102260001A400260031D294A1A60026822F4802283
:10227000026020480C300160FFF790FF21494FF0C9
:1022800000608039086010BD70B51A4D08352868A7
:102290001F4B204910F00C0004D05E10042803D01E
:1022A000082803D00B601BE00E6019E0114A121DD4
:1022B0001068C0F38054106800F03F0014B1B6FB02
:1022C000F0F001E0B3FBF0F013681268C3F3881379
:1022D0005843C2F30142521C5200B0FBF2F00860B6
:1022E00028680C4AC0F30310121D105C0A68C24033
:1022F0000A6070BD0038024000700040085440077A
:10230000003C024088ED00E0FFFFF6FE10300024A4
:102310000024F400F0010020714910B5884206D174
:102320000121084600F0B6FA002101204FE06D4976
:10233000884206D10121022000F0ACFA00210220DF
:1023400045E06949884206D10121042000F0A2FA43
:10235000002104203BE06549884206D10121082084
:1023600000F098FA0021082031E06149884206D146
:102370000121102000F08EFA0021102027E05D4995
:10238000884206D10121202000F084FA002120207B
:102390001DE05949884206D10121402000F07AFA17
:1023A0000021402013E05549884206D101218020B8
:1023B00000F070FA0021802009E0514988420AD1DA
:1023C00084150121204600F065FA00212046BDE871
:1023D000104000F05FBA10BDF0B5002201274FF0A9
:1023E000030C0B6807FA02F52B40AB422CD10668B0
:1023F00053000CFA03F4A64306600E79D0F800E00F
:102400009E4046EA0E0606600E79012E01D0022E8D
:1024100012D18668A64386604E79D0F808E09E40C7
:1024200046EA0E0686604668AE43466045688E7989
:102430009640B6B235434560C568A543C560CC79C2
:102440009C40C3681C43C460521C102AC9D3F0BD11
:102450004FF6FF7101600021017141718171C171FD
:10246000704708B541F480320092C261C1610099A1
:10247000C161C169C069009008BD024600201269AF
:102480000A4200D001207047006980B270470246BE
:10249000002052690A4200D001207047406980B292
:1024A000704701837047418370470AB101837047C9
:1024B000418370474161704742694A4042617047B9
:1024C0004B07DB0E9A40C90810B500EB8100016A8A
:1024D0000F249C40A1430162016A1143016210BDB7
:1024E000000002400004024000080240000C0240CC
:1024F000001002400014024000180240001C02407C
:1025000000200240374900200860091D0860091DAD
:102510000860091D0860334933481431086070476A
:1025200030B5304A8379016853B313688B43136025
:10253000111D0B680468A3430B60017911440B68FB
:10254000046823430B60274B083319680468A143D0
:1025500019601C1D21680568A94321604179102973
:1025600005D011440A68006802430A6030BD19684A
:10257000026811431960216800680143216030BD81
:102580000079104402688A43026030BD0021016076
:1025900001710C22427181717047124910310A6831
:1025A00002430A60704701460E4A00201432126846
:1025B0000A4200D0012070470A4914310860704770
:1025C000084A014600201268064B0A4014331B6873
:1025D0000B4202D0002A00D001207047014914317B
:1025E00008607047003C0140FFFF7F00EA48016837
:1025F00041F001010160E84A0021083211600268DF
:10260000E64B1A400260031DE54A1A60026822F494
:1026100080220260E0480C3001607047DE490022F1
:10262000891C0A7008707047024600205109012970
:102630000CD002290CD0D8497431096802F01F026D
:10264000012393400B4200D001207047D249F4E7A8
:10265000D1497031F1E718B500204FF4A044009043
:102660003120FFF7E1FF0099491C0091A14201D000
:102670000028F5D03120FFF7D7FF002800D0012037
:1026800018BDC54A116821F0F80141EAC000106088
:102690007047C44908607047BF49002270310A7012
:1026A0000A70012802D0042801D105200870704763
:1026B000BD490860704741EA82115A0810B5BB4B0A
:1026C000029C03EB02421143014341EA0460B24918
:1026D000091D086010BDB34908667047800140EAD3
:1026E0000170AD49843108607047AE498866704713
:1026F000AC49C8647047A84B08331A68084322F0F5
:10270000EC62104318607047A34B08331A68084303
:1027100022F078421043186070479F4A08321168CF
:1027200021F003010143116070479B4808300068A5
:1027300000F00C007047984A0832116821F0F0014F
:10274000014311607047944A0832116821F4E05146
:10275000014311607047904A0832116821F46041CA
:1027600041EAC0001060704770B58B4B08331968A0
:102770008F4C11F00C0104D06610042903D00829F5
:1027800003D004601BE0066019E0834A121D116843
:10279000C1F38055116801F03F0115B1B6FBF1F1AD
:1027A00001E0B4FBF1F114681268C4F388146143CA
:1027B000C2F30142521C5200B1FBF2F101601968F0
:1027C0000F2202EA11117B4A545C0168E14041602A
:1027D0001C68072505EA9424145D21FA04F484603A
:1027E0001B6805EA5333D25CD140C16070BDC0F3B1
:1027F0000121032908D1684B083319686E4A21F476
:10280000F81102400A431A60634970310A68C0F344
:102810000B0002430A6070476349443908607047FF
:1028200061494039086070475E49C1F85C017047F2
:10283000594A30320029116801D0014300E0814338
:1028400011607047544A34320029116801D00143A5
:1028500000E08143116070474F4A38320029116807
:1028600001D0014300E08143116070474A4A403281
:102870000029116801D0014300E0814311607047D5
:10288000454A44320029116801D0014300E08143E8
:1028900011607047404A10320029116801D001438D
:1028A00000E08143116070473B4A143200291168EF
:1028B00001D0014300E0814311607047364A18326D
:1028C0000029116801D0014300E081431160704785
:1028D000314A20320029116801D0014300E08143D0
:1028E000116070472C4A24320029116801D001433D
:1028F00000E0814311607047274A50320029116877
:1029000001D0014300E0814311607047224A5432F4
:102910000029116801D0014300E081431160704734
:102920001D4A58320029116801D0014300E081435B
:1029300011607047184A60320029116801D00143C4
:1029400000E0814311607047134A64320029116826
:1029500001D0014300E08143116070470E4A0D32FF
:102960000029117801D0014300E0814311707047C4
:1029700009487430016841F0807101607047014678
:10298000054A00200C3212680A4200D0012070472C
:1029900001490E310870704700380240FFFFF6FE13
:1029A0001030002400004742800E47420000FFFF25
:1029B0000024F40004020020FFFCFF0F2849084314
:1029C00028490860704730B50F23C2780178012587
:1029D000FAB1244A126801F1E02102F4E062C2F582
:1029E000E062C2F30722C2F10404D3404278A2405D
:1029F00084781C401443220181F80024007800F000
:102A00001F018D404009800000F1E020C0F8005116
:102A100030BD01F01F0085404809800000F1E02032
:102A2000C0F8805130BD104A114001430D48001FCD
:102A3000016070470B4A121D0029116801D0014343
:102A400000E08143116070474FF0E02104280869DD
:102A500003D020F004000861704740F00400FAE75A
:102A60000000FA050CED00E080FFFF1F10B501210A
:102A70008C032046FFF736FF2046BDE810400021BA
:102A8000FFF730BF13490860704710B58A0721F07F
:102A900003041149120F21440F23D1F80848934031
:102AA0009C43C1F80848D1F8083890400343C1F866
:102AB000083810BD0949C1F8DC00704708490860B2
:102AC00070470449002020310968C90500D501205C
:102AD00070470000003801400030014000002742EC
:102AE00000042742C74910B5884206D101211020B1
:102AF000FFF7F8FE0021102028E0C349884202D1E8
:102B000001214C0410E0C149884202D101218C040A
:102B10000AE0BF49884202D10121CC0404E0BD494A
:102B200088420AD101210C052046FFF7D1FE20463C
:102B3000BDE810400021FFF7CBBEB749884209D15C
:102B400001212020FFF7CEFE00212020BDE810400B
:102B5000FFF7C8BE10BD7FB50446008A0D46C98880
:102B600020F4405001432182A08941F20C61884346
:102B7000A9882A8911436A8902431143A181A08A45
:102B800020F44071A8890843A0826846FFF7ECFD55
:102B90009C48844202D0A048844201D1039800E0BE
:102BA0000298A189090400EBC00101EB001029681B
:102BB00001D5490000E08900B0FBF1F06422B0FBD0
:102BC000F2F109010B096FF018056B4300EB83006C
:102BD000A3891D044FF0320306D503EBC000B0FB00
:102BE000F2F000F0070005E003EB0010B0FBF2F09C
:102BF00000F00F00084320817FBD4FF416510160A3
:102C000000218180C18001810C2242818181704735
:102C100010B5028A4C8822F470630A8822438C889B
:102C2000C9880C4322431A43028210BD002101804F
:102C300041808180C18070470029818902D041F4A0
:102C4000005101E021F4005181817047028B02F4B0
:102C50007F420283028B0A430283704700298189E5
:102C600002D041F4004101E0C1F30E0181817047BF
:102C70000029818A02D041F4006101E021F4006161
:102C800081827047C1F30801818070478088C0F35A
:102C900008007047028A22F00F020282028A0A4369
:102CA000028270470029818902D041F0020101E0CF
:102CB00021F0020181817047828922F400628281C1
:102CC00082890A4382817047028A22F020020282AE
:102CD000028A0A43028270470029018A02D041F425
:102CE000804101E021F4804101827047818941F0F7
:102CF0000101818170470029818A02D041F00801D9
:102D000001E021F0080181827047028BD2B2028378
:102D1000028B42EA0121018370470029818A02D097
:102D200041F0200101E021F020018182704700295B
:102D3000818A02D041F0100101E021F0100181826E
:102D40007047828A22F004028282828A0A43828247
:102D500070470029818A02D041F0020101E021F090
:102D6000020181827047002A828A01D00A4300E072
:102D70008A438282704710B5C1F3421301F01F04E9
:102D80000121A140012B07D0022B07D01430002ACB
:102D9000026805D00A4304E00C30F8E71030F6E78B
:102DA0008A43026010BD0246002012880A4200D009
:102DB00001207047C9430180704770B501F01F05BD
:102DC00001260024C1F3421306FA05F2012B0FD0AD
:102DD000022B0FD0838A4FEA11210088134206FA92
:102DE00001F600EA060001D000B10124204670BDC2
:102DF0008389F0E7038AEEE70A0A01219140C9437B
:102E0000018070470010014000440040004800402D
:102E1000004C004000500040001401402DE9F043F8
:102E2000016821F0010101600021016041608160C1
:102E3000C160016121214161B849B84A3D2510397D
:102E4000904202D18D60BDE8F083B44A4FF47466BD
:102E50001832904201D18E60F5E7B04A4FF47417F2
:102E60003032904201D18F60EDE7AC4A4FF0746C84
:102E70004832904202D1C1F808C0E4E7A74BA84A03
:102E80006033984201D1CA60DDE7A44CA54B783489
:102E9000A04201D1CB60D6E7DFF88082A24C08F1D6
:102EA0009008404501D1CC60CDE7DFF870824FF04B
:102EB0003D5908F1A808404502D1C1F80C90C2E77D
:102EC0009A49DFF868820839404501D10D60BAE7B8
:102ED000964D1835A84201D10E60B4E7934D3035B8
:102EE000A84201D10F60AEE7904D4835A84202D10B
:102EF000C1F800C0A7E78D4D8C496035091FA84275
:102F000001D10A609FE7894A7832904201D10B6073
:102F100099E7864A9032904201D10C6093E7834A48
:102F2000A83290428FD1C1F800908CE730B5036889
:102F30007F4ACC6813400A682243D1E905452C43F7
:102F40002243CC6922430C6A22434C6A22438C6A96
:102F500022434C6B22438C6B22431A43026042692A
:102F600022F00703D1E90B2422431A4342610A6984
:102F700042604A6882608968C16030BD002101609A
:102F800041608160C160016141618161C161016233
:102F900041628162C16201634163816370470029BC
:102FA000016802D041F0010101E021F0010101605E
:102FB00070470029016802D041F4004101E021F48A
:102FC0000041016070470029016802D041F02001F2
:102FD00001E021F0200101607047416070474068C6
:102FE00080B27047002A026802D042F4002201E059
:102FF00022F400220260016170470029016802D0BA
:1030000041F4802101E021F48021016070470AB180
:1030100001617047C16070470146002009680903DB
:1030200000D501207047014600200968C90700D07B
:1030300001207047406900F03800704702463B4B62
:1030400000209A4202D2354A103A01E0374A103A3B
:103050008B0001D5526800E01268364B1A400A42D4
:1030600000D001207047314A904202D22B481038DC
:1030700001E02E4810382F4A8B0001EA020101D5E9
:10308000C1607047816070470B0607D5436912B174
:1030900043F0800301E023F080034361802908D0DE
:1030A000002A026801F01E0101D00A4300E08A43B1
:1030B0000260704730B51D4A0024904202D2174A80
:1030C000103A01E0194A103A1B4B194205D01E2351
:1030D00003EAD12503682B4002E0406900F0800339
:1030E000880001D5506800E01068124A104008427C
:1030F00001D003B10124204630BD0C4A904202D2D7
:103100000648103801E0094810380A4A8B0001EAE5
:10311000020101D5C16070478160704710600240B4
:103120003D000020400F002000003D2010640240C0
:103130003F801CF07D0F7D0F3C0F3C0F10B501212F
:10314000CC022046FFF7CEFB2046BDE81040002110
:10315000FFF7C8BB30B5644B1A6847F6FF618A4376
:10316000017D8468C568214344682C432143046879
:103170000069214301431143196030BD00210175ED
:10318000016041608160C160016170475749C1F8C9
:10319000A00070475449091F086070475248001F3B
:1031A000006800F0030070474F4A10B5121D016817
:1031B0001160131D1968D0E901242243D0E90340AE
:1031C00004436FF30A0122430A431A6010BD002131
:1031D000016041608160C1600161704742480C300C
:1031E0000068C0B27047404908B5103108440090EB
:1031F000006808BD3C4A10B5203201681160121DFC
:1032000041681160131D1968D0E902242243D0E9F6
:103210000440044321F0F70122430A431A6010BD21
:103220004FF0FF310160002141608160C1600161A8
:10323000416170472C482C30006870472A487C3028
:103240000068704728497C31086070472648443040
:10325000006870472649086070472549091D0860C5
:103260007047234908310860704721490C310860D4
:1032700070471E49C1F8AC0170471C49C1F8B00144
:103280007047012181431948C0F8B41170471749AC
:10329000C1F8B80170471649143908607047124ADE
:1032A00038320029116801D0014300E081431160E8
:1032B000704701460C4A0020303212680A4200D0A2
:1032C0000120704708493431086070470146064ABA
:1032D0000020303212680A4200D0012070470249B3
:1032E0003431086070470000042C01400080254202
:1032F000A085254218B50020FA4B0090CA2018601E
:1033000053201860F7491839086820F0A0000860B9
:103310004FF400340868009A00F02000521C00921C
:10332000A24201D00028F5D00868800601D501200E
:1033300000E00020FF21196018BD08B5E949002010
:10334000183900900868400612D44FF0FF3008602A
:103350008B130868009A00F04000521C00929A42B9
:1033600001D00028F5D00868400601D4002008BD2F
:10337000012008BD78B50024DA4ECA200094254605
:10338000306053203060FFF7D8FFE0B3D5482438D1
:103390000460D44942F20110203908600B1D1868FE
:1033A00000F0070018608D131A1D1068009900F0D6
:1033B0000400491C0091A94201D00028F5D01068F2
:1033C000400729D518681C60C6494FF6FF701039B0
:1033D0000860091FC4480860C2480C380460001D1A
:1033E0000460001D0460BF4808300460BD48183008
:1033F0000460BC4820300460001D04601460B948BB
:103400001C30046000E003E0FFF774FF20B10125E9
:10341000FF203060284678BD0025F9E7B14818380C
:10342000016821F080010160704770B5AD4E04461F
:103430000025CA20306053203060FFF77EFFA8B11E
:10344000A8481C38016821F0400101600168226829
:1034500011430160A348A168143801600168A28883
:1034600041EA02410160FFF7D9FF0125FF203060EA
:10347000284670BD002101607F214160FF218160ED
:103480007047984908B1FF2002E0CA200860532025
:103490000860704770B5934E05460024CA2030601E
:1034A00053203060FFF749FF60B18E481C38016837
:1034B00015B141F0100101E021F010010160FFF7AA
:1034C000ADFF0124FF203060204670BD854ACA212F
:1034D00011605321116083491C390028086802D00B
:1034E00040F0200001E000F0DF000860FF201060E5
:1034F00070472DE9F0410C4600267C4F01002078F2
:10350000396832464FEA416104D000292FDA00F0D1
:1035100008FC2DE0002900DBE27000F0F6FB05045A
:10352000607800F0F2FB45EA0025A07800F0EDFBA2
:103530000543E07845EA00456A4CCA2020605320E4
:103540002060FFF7FAFE68B169480540674808380F
:103550000560FFF763FF3868800602D4FFF7CAFEF4
:1035600000B10126FF2020603046BDE8F081E27006
:10357000A078217840EA01456078E178000240EACD
:1035800001400543D8E70021C1700170417081708E
:103590007047020010B557480C460168544801EACC
:1035A0000001C1F305402070C1F30623637001F0F0
:1035B0007F03A3704FF0400303EA1141E1700AD189
:1035C00000F0AFFB2070607800F0ABFB6070A0787B
:1035D00000F0A7FBA07010BD4248001D00684349E1
:1035E000091F0968704770B50C4600260100607815
:1035F0000FD000F096FBA07800F093FBA078E17864
:1036000040EA014560782178000240EA41300543F4
:1036100015E0C10603D520F010000A306070E07894
:1036200000F073FB0504607800F06FFB45EA0025AD
:10363000A07800F06AFB0543207845EA4035294C24
:10364000CA20206053202060FFF777FE70B12A481F
:1036500005402648001F0560FFF7E0FE234800688C
:10366000800602D4FFF746FE00B10126FF2020604D
:10367000304670BD01210170817041700021C17020
:103680007047020010B51D480C4601681A4801EA4F
:1036900000014FEA1140E070C1F30423637001F0B0
:1036A0003F03A370C1F3423121700AD100F039FB0E
:1036B000E070607800F035FB6070A07800F031FBBE
:1036C000A07010BD70B514460D46084A00210028B0
:1036D00010684FEA406013D000282ADA207800F002
:1036E00020FB27E024280040FF007F00082800403E
:1036F0007F7F7F00002800403FFFFF00042800403C
:10370000002800DBE170207800F0FFFA0604607802
:1037100000F0FBFA46EA0026A07800F0F6FA06432D
:10372000E07846EA0046207B00F0EFFA46EA0060C7
:1037300010E0E170207B00F0F4FAA0782178E278C4
:1037400040EA01406178090241EA02410843217BD5
:1037500040EA0160A168084361680843F849CA2249
:103760000A6053220A60B5F5807F04D00A1F1060FA
:10377000FF20086070BDF24A083AF8E70021C170E6
:103780000170417081700122816002734160704755
:1037900010B514460246B1F5807F2AD0E848001FD4
:1037A0000168C1F305402070C1F30623637001F086
:1037B0007F03A370402303EA1143E370C1F3056361
:1037C000237301F0804301F08031C4E90113002A22
:1037D0000ED100F0A6FA2070607800F0A2FA6070B6
:1037E000A07800F09EFAA070207B00F09AFA207377
:1037F00010BDD3480838D3E738B50022D04C00922A
:10380000CA22226053222260CD4A1C3A0029116844
:1038100002D00143116012E081431160C84A183A96
:1038200095131168009B01EA10215B1C0093AB42C9
:1038300001D00029F5D0116811EA102000D0012034
:10384000FF21216038BD10B5BD4BCA241C60532434
:103850001C601143B0F5807F05D0B9482430016069
:10386000FF20186010BDB6482030F8E7B0F5807F23
:1038700005D0B34824300068C0F30E007047B0484C
:103880002030F8E7AE4ACA21116053211160AC49DB
:103890001C390B6823F007030B600B6803430B60B4
:1038A000FF2010607047A649CA220A6053220A60AE
:1038B000A34A103A1060FF2008607047A0481038F3
:1038C000006880B2704718B500219D4B0091CA2155
:1038D0001960532119609A491C390028086803D0DF
:1038E00040F48060086014E020F48060086094492F
:1038F00018398C130868009A00F00400521C0092DA
:10390000A24201D00028F5D00868400701D4002069
:1039100000E00120FF21196018BD894B10B5CA22B3
:103920001A6053221A60864A1C3A146824F48024D0
:1039300014601468084304431460FF20186010BD2D
:103940007F481C38006800F4802070477C4B10B51D
:10395000CA221A6053221A60794A1C3A146824F465
:10396000E00414601468084304431460FF201860E6
:1039700010BDF0B5724D06460024CA200F462860DF
:1039800053202860FFF7D9FC30B16D483E430C3816
:103990000660FFF743FD0124FF2028602046F0BDAC
:1039A00070B5674E05460024CA2030605320306051
:1039B000FFF7C3FC60B162481C38016815B141F0E3
:1039C000800101E021F080010160FFF727FD012463
:1039D000FF203060204670BD594ACA211160532132
:1039E000116057491C390028086802D040F40000D3
:1039F00001E020F400000860FF2010607047504A8A
:103A0000CA211160532111604D491C390B6823F400
:103A100000230B600B6803430B60FF2010607047AE
:103A2000F0B5474D0023CA242C6053242C60444C2D
:103A3000183C2668F60308D54FF400362768FF03C4
:103A400003D5B34201D05B1CF8E72368DB0306D43F
:103A500008433B49104318310860012000E0002072
:103A6000FF212960F0BD364B10B51C3B1A6840F6AB
:103A70000804A24342EA000209B142F4006230485D
:103A8000CA210160532101601A60FF21016010BD4D
:103A900070B50D462A4914460C310968294A11406F
:103AA000274A103212684FF63F731A40C1F305439C
:103AB0002B70C1F306236B7001F07F03AB704023C2
:103AC00003EA1141E9700021E170C2F30421617041
:103AD00002F03F01A170C2F342312170002817D1DA
:103AE000287800F01EF92870687800F01AF96870DC
:103AF000A87800F016F9A870607800F012F96070EC
:103B0000A07800F00EF9A070207800F00AF920707B
:103B100070BD0B48143000687047094A1C320029F8
:103B2000116803D041EA40001060704721EA40006C
:103B3000FAE7034A1C320029116805D0014304E06A
:103B4000242800407F7F7F008143116070477949BE
:103B50000A6822F4C0520A600A6802430A60704789
:103B600074490A6822F4E0620A600A6802430A6043
:103B7000704770490A6822F4C0420A600A6802432A
:103B80000A6070476B490028086802D040F0800046
:103B900001E020F08000086070476649002808684E
:103BA00002D020F4004001E040F40040086070477B
:103BB000604A08B5103202EB80000090016008BD39
:103BC0005C4908B5103101EB80000090006808BD29
:103BD00058490A6822F480320A600A6802430A607F
:103BE000704754490A6822F400320A600A680243A6
:103BF0000A6070474F490A6822F480220A600A6806
:103C000002430A60704770B54A4C0022CA231C3C2C
:103C1000236053232360474B343B1D682D0707D592
:103C20009E141D682D0703D5B24201D0521CF8E73F
:103C30001A6812070DD43F4A383A1268D20608D4DF
:103C400001433C4814380160FFF754FB10B10120D8
:103C500000E00020FF21216070BD30B5354DCA2243
:103C60001C3D2A6053222A60324C20F00402383C6A
:103C70000029304B216800F0040004D0114321607A
:103C80001968014303E09143216019688143196079
:103C9000FF20286030BD02462649002034390968DB
:103CA000254B1940114200D00120704780B240F0EE
:103CB0008000C1431F483438026802F0800211437B
:103CC000016070471B4A0021126802F00403194A80
:103CD000383A126803EAD03302401A43174B1B6884
:103CE00003EA101003D00004000C00D001210846A4
:103CF0007047C0F30F1040F08000C1430F480268C6
:103D000002F08002114301607047002103E0491C6A
:103D10000A38C9B2C0B20A28F9D2090740EA1160CC
:103D20007047010901EB810100F00F0000EB410039
:103D3000C0B27047402800407F3F01000C2800407F
:103D400010B501210C072046FEF7C2FD2046BDE854
:103D500010400021FEF7BCBD2B49086270472B4A7A
:103D6000116821F0E00101431160704726490861A4
:103D700070472549C1F8A00070472349C1F8A40045
:103D800070472249B0F5004F086803D040F4404026
:103D90000860704720F44040FAE71B4948627047CA
:103DA0001A4B1A6822F0030202431A60184802688C
:103DB00042F004020260012905D020BF016821F011
:103DC00004010160704730BFF8E71048016841F016
:103DD00004010160016841F0020101600C480168C2
:103DE00041F00401016030BF7047084A01460020DD
:103DF00052680A4200D00120704704490A6842EA2A
:103E0000800008607047000000000E420070004013
:103E100010ED00E01CB504467548012150F824005F
:103E2000FEF706FD72480021083830F814000090B3
:103E300001208DF804008DF806108DF8070002208F
:103E40008DF805006B48694650F82400FEF7C4FA67
:103E50001CBD6749674A083931F8101052F8200034
:103E6000018370476249634A083931F8101052F8EB
:103E70002000418370475F4951F820104A695C4B2C
:103E8000083B33F8100042404A61704770B5044661
:103E900057480E46183886B050F824000121FEF726
:103EA000C7FC01218803FEF7EBFC514800258DF883
:103EB000105028388DF8135030F8140003904D48F6
:103EC00003A9103850F82400FEF786FA012E25D1F8
:103ED00047482B38015D401E005DFEF7D6FD444883
:103EE000263830F8140000908DF8045008208DF822
:103EF000050001258DF806506846FEF711FB3C4889
:103F00002A38005D8DF808000F208DF809008DF823
:103F10000A008DF80B5002A8FEF755FD06B070BDE3
:103F20003349344A2839103A31F8101052F8200039
:103F3000FEF7A3BA2DE9FC41884604462C482C49DB
:103F400010380C3950F8240051F82410084301218E
:103F5000FEF76EFC2CB92648012114380068FEF7E4
:103F600085FC2348234E1C38083E10F81420001FFF
:103F700030F8141056F82400FEF7A2FA1C48371D3A
:103F80001A3810F81420001F30F8141057F82400C5
:103F9000FEF796FA00208DF8060001208DF8070044
:103FA0001348022524388DF8045030F8140000908E
:103FB0008DF8055056F824006946FEF70DFA0C48B6
:103FC0008DF804502238694630F81400009057F8F4
:103FD0002400FEF701FA351F414655F82400FEF78C
:103FE000BAFD55F824000121FEF726FEBDE8FC814C
:103FF0001C5A0108240200202DE9FF5F1546DDE967
:104000000E68109F8A465FEA000B04D0052E05D388
:10401000FCF7A2F9FEE7FCF79FF9FEE7482000F065
:1040200051FF040009D0A8008146AFB13846206393
:10403000A8B1A52249460FF022FF002C70D06FF0E6
:104040000301206B01EB8501084420F00707780786
:104050000AD0FCF781F9FEE700F034FFE7E72046DD
:1040600000F085FF0024E8E751463546002022187D
:104070000B5C82F834300A5C12B1401C1028F6D375
:10408000002184F84310052D00D30425E562201D8E
:10409000656400F09EFF04F1180000F09AFF2461AF
:1040A000C5F105016462A16159463846039A01F0E1
:1040B0005DF92060B8F1000F01D0C8F8004001F0B0
:1040C000CBF9F84F7868401C78603868DFF8D883FF
:1040D00010B1386928B329E03C607868012825D1FF
:1040E000002505EB850108EB810000F067FF6D1CE2
:1040F000052DF6D3EC48643000F060FFEA487830D4
:1041000000F05CFFE8488C3000F058FFE648A03033
:1041100000F054FFE4486430F8621430386305E07E
:1041200022E03868C06AB04200D83C60786A401C1F
:104130007862E06AF968884200D9F86000EB800193
:1041400008EB8100211D00F047FF012401F090F9E8
:10415000386928B13868C06AB04201D201F072F9FA
:1041600004B02046BDE8F09F4FF0FF34F8E72DE99A
:10417000F047CC4E0027706928B1B069401CB0618F
:104180003846BDE8F087B068401CB060B5684FF0B5
:10419000FF39A5B9F06A006810B1FCF7DDF8FEE759
:1041A000F06A316BF1623063306A401C3062F06A51
:1041B0000068E8B1F06AC068C0684068B062B06A80
:1041C000DFF8E482854209D3F06A006890B1F06AB2
:1041D000C068C468606885420ED2B0623068C06A48
:1041E00000EB800158F821000128C9D90127C7E751
:1041F0004846E3E74846F0E7201D00F011FFA06ABB
:1042000018B104F1180000F00BFFE06AF168884271
:1042100000D9F06000EB800108EB8100211D00F067
:10422000DBFEE06A3168C96A8842CDD30127CBE75B
:104230002DE9F0479B4E00273D46706938B101F0EB
:104240000BF97069401E7061706918B140E0FCF7AD
:1042500083F8FEE7706894498C31C8B3DFF8489260
:104260008846D8F80010E1B1D8F80C00C46804F111
:10427000180000F0D5FE201D00F0D2FEE06AF168C3
:10428000884200D9F06000EB800109EB8100211D1C
:1042900000F0A2FEE06A3168C96A8842E1D30125D4
:1042A000DFE7B06938B909E0FFF761FF00B1012528
:1042B000B069401EB061B0690028F5D1012D02D06F
:1042C000F069012804D100200127F06101F0BAF85B
:1042D00001F0CEF8384654E770B5724D04462868B0
:1042E0004460A8682968844205D2286BBDE8704004
:1042F000091D00F07DBEE86A091D00F079FEA86A7C
:10430000844200D2AC6270BD66484169491C41617B
:10431000704710B502000FD0FFF7F6FF61488168C3
:1043200000688C18001D00F07BFE2046FFF7D4FFCC
:10433000FFF77EFF002803D1BDE8104001F082B8EE
:1043400010BD584910B54869574A30B10120C861BD
:1043500010BDD0B1C868401EC860C86800EB8000BE
:1043600052F820000028C868F3D000EB800002EB70
:10437000800000F108034268526842609A4201D10D
:1043800052684260D068086010BDFBF7E5FFFEE7A9
:1043900070B5044601F060F8424D04B92C68201D48
:1043A00000F03EFEA06A18B104F1180000F038FEDB
:1043B0003D48211DA03000F00FFE01F059F828689B
:1043C00084420DD1286918B1BDE8704001F03AB8B7
:1043D00035486968A0300068884202D10020286012
:1043E00070BDBDE87040ACE710B5002158B12E4B50
:1043F0004269A0339A420AD1806AA3F11402904222
:1044000005D018B103E0FBF7A7FFFEE7012108463E
:1044100010BD70B504000BD0224D2868844225D011
:1044200001F01AF82046FFF7DFFF012803D019E05A
:10443000FBF792FFFEE7201D00F0F2FDE06AE9685D
:10444000884200D9E860184900EB800001EB800049
:10445000211D00F0C1FDE06A2968C96A884201D3C4
:1044600000F0F0FFBDE8704001F002B870BD2DE92A
:10447000F041002504000AD001F065F8FBF76CFF5D
:1044800007462046FFF7B0FF012803D026E0FBF7E0
:1044900063FFFEE7034E706940B1034804F1180161
:1044A0008C3019E03402002010080020E06A3168E6
:1044B000C96A884201D3012500E00025201D00F0D3
:1044C000AFFDE06AF168884200D9F060C34900EBB3
:1044D000800001EB8000211D00F07EFD3846FBF7D7
:1044E00042FF2846BDE8F081BD480168C96A09B1AC
:1044F00000207047B94909680129F9D8816A8068A4
:10450000081A7047B54DB64C2868012801D900F04B
:1045100099FFFFF7E9FF0228F6D3FFF7F5FEA06A3F
:10452000A168884202D2FBF717FFFEE7FFF7DCFF26
:10453000022801D300F0B4FFFFF77AFEE4E71FB5CD
:10454000002400940194029423468022A5A1A74848
:104550000394FFF751FD012803D100F0ECFD012881
:1045600004D000280CD1FBF7F7FEFEE7FBF7F4FEC2
:104570009B48012101618460BDE81F4000F024BF19
:104580001FBD10B5FBF7E8FE954900200861BDE8A6
:10459000104000F056BF10B500F05EFF90488468F0
:1045A00000F066FF204610BD10B500F0CCFFFBF711
:1045B000D3FE8B498C68FBF7D6FE204610BD884899
:1045C00040687047864910B58A688B6A02449A42EF
:1045D00002D9FBF7C1FEFEE78A681044886010BD6F
:1045E00070B50D4678B17E4C2168183100F000FDA1
:1045F0002068001D00F014FD681C07D0A068284446
:10460000BDE8704068E6FBF7A7FEFEE72168734847
:10461000BDE87040A030091D00F0DEBC70B50D464D
:1046200068B16F4C2168183100F0D6FC2068001D7D
:1046300000F0F6FCA0682844BDE870404CE6FBF7AB
:104640008BFEFEE770B5C068C4685CB104F1180069
:10465000064600F0E5FC624D686930B15F483146BE
:104660008C3010E0FBF778FEFEE7201D00F0D8FC50
:10467000E06AE968884200D9E860584900EB8000A8
:1046800001EB8000211D00F0A7FCE06A2968C96ADF
:10469000884201D3012070BD002070BD10B528B143
:1046A0004F490A6A02608968416010BDFBF754FEF9
:1046B000FEE770B50D46040019D0DDB100F0CCFE68
:1046C000474A906829684B1C0FD02368126A9342AE
:1046D00002D06268824210D96268801A88420CD285
:1046E000081A28602046FFF7D9FF002406E0FBF7F0
:1046F00033FEFEE7FBF730FEFEE7012400F0B8FED4
:10470000204670BD36490120C861704733490120F9
:104710008C31096809B1002070473149C969002905
:10472000F9D170472E48006870472D48016919B1CA
:10473000406918B10220704700207047012070477F
:1047400070B5040029D0264DE06A2968C96A8842FC
:1047500023D22868214EC06AC0F10500A061E06A3A
:10476000616900EB800006EB8000814212D1201DC0
:1047700000F056FC2868C06AE062E968884200D907
:10478000E86000EB800006EB8000211DBDE8704072
:1047900000F022BC2868C06AE06270BD10B5040059
:1047A0001BD0616CE06A884217D0201D00F038FCF5
:1047B000606CE062C0F105000949A061E06ACA6866
:1047C000904200D9C860054900EB800001EB8000F1
:1047D000211DBDE8104000F0FFBB10BD10080020F7
:1047E0003402002049444C45000000000545000803
:1047F00070B50D46040023D000F02EFED4E90F2042
:10480000216802FB001161600021A1632168A160A1
:104810000A46D4E90F01401E00FB01214FF0FF3092
:10482000E1606064A06404F1100065B100F0C6FBB3
:1048300004F1240000F0C2FB00F01AFE012070BD5C
:10484000FBF78AFDFEE721690029F5D0FFF7FAFEA4
:104850000128F1D100F0F6FDEEE770B50E46050037
:1048600016D04C2000F02EFB040011D005FB06F002
:10487000401C00F027FB206038B1C4E90F5601212D
:104880002046FFF7B5FF204670BD204600F06FFBC5
:10489000FBF762FDFEE770B5044600F0DDFD04F1B4
:1048A00024050AE0606A58B12846FFF7CBFE08B13C
:1048B000FFF728FFA06C401EA064A06C0028F1DC6C
:1048C0004FF0FF35A56400F0D3FD00F0C5FD04F105
:1048D00010060AE0206958B13046FFF7B3FE08B170
:1048E000FFF710FF606C401E6064606C0028F1DC14
:1048F0006564BDE8704000F0BBBD70B51546026C44
:10490000044682B1BDB1E0680FF042FAE168206C64
:10491000091AE1602268914202D26168081AE060D7
:10492000022D15D019E02068B8B96068FFF736FF8E
:104930000020606011E0A0680FF02AFA216CA068E6
:104940000844A0606168884207D32068A06004E042
:10495000A06B10B1A06B401EA063A06B401CA063B5
:1049600070BD2DE9FF4383B01F46894604004FF018
:10497000000603D0B9F1000F03D007E0FBF7ECFC11
:10498000FEE7206C10B1FBF7E7FCFEE74FF00008F4
:10499000022F05D1E06B012802D0FBF7DDFCFEE71A
:1049A00000F05AFDA06BE16B884205D3022F03D0C3
:1049B0000598B0B1C6B11BE03A4649462046FFF71C
:1049C0009CFF606A38B104F12400FFF73BFE012828
:1049D00001D100F037FD00F04BFD012007B0BDE82C
:1049E000F08300F045FD1FE06846FFF757FE012603
:1049F00000F03EFDFFF788FC00F02EFD606C401CCF
:104A000001D1C4F84480A06C401C01D1C4F8488096
:104A100000F02EFD05A96846FFF74BFE30B1204699
:104A2000FFF739FFFFF704FC0020D7E700F014FD83
:104A3000A06BE16B884201D1012500E0002500F068
:104A400017FD75B104F110000599FFF7C9FD204667
:104A5000FFF721FFFFF7ECFB0028A1D100F0F2FCEB
:104A60009EE72046FFF717FFFFF7E2FB98E710B538
:104A70004C2000F027FA04001BD00020606020606A
:104A8000A060E060A0630121C4E90F10401E6064D3
:104A9000A06404F1100000F091FA04F1240000F089
:104AA0008DFA00231A4619462046FFF75AFF204682
:104AB00010BDFBF751FCFEE710B5040009D0FFF76D
:104AC00031FE616888420FD1E068401EE06003D08B
:104AD00008E0FBF741FCFEE700231A461946204692
:104AE000FFF73FFF012010BD002010BD30B4046867
:104AF0000D46002C0CD0026CC1688B18C360416855
:104B00008B4200D3C460C168284630BC0FF040B966
:104B100030BC70472DE9FF4383B0994688460400B6
:104B20004FF0000604D00027B8F1000F03D007E0D3
:104B3000FBF712FCFEE7206C10B1FBF70DFCFEE763
:104B400000F08AFCA06B38B341462046E568FFF7C9
:104B5000CDFFB9F1000F0DD0E560606A30B104F10E
:104B60002400FFF76FFD08B100F06CFC00F080FC42
:104B7000012033E7A06B401EA063206810B9FFF747
:104B8000D1FD606020690028F0D004F11000FFF72B
:104B900059FD0128E8D0E9E7059808B11EB106E003
:104BA00000F066FC1DE06846FFF778FD012600F086
:104BB0005FFCFFF7A9FB00F04FFC606C401C00D1CC
:104BC0006764A06C401C00D1A76400F051FC05A9EB
:104BD0006846FFF76EFD30B12046FFF75CFEFFF739
:104BE00027FB0020FAE600F037FCA06B30B100256F
:104BF00000F03EFCD5B1206810B108E00125F7E7D0
:104C000000F02AFC6068FFF79BFD00F031FC04F126
:104C100024000599FFF7E4FC2046FFF73CFEFFF770
:104C200007FB00288CD100F00DFC89E72046FFF738
:104C300032FEFFF7FDFA83E770B50D46040009D098
:104C4000FFF770FD6168884207D1E068401CE060B2
:104C5000012070BDFBF780FBFEE700232A461946C2
:104C60002046FFF757FF0128F3D1E168491CE160B6
:104C700070BD10B50C4602220021FFF7EEFD08B111
:104C8000846310BDFBF768FBFEE72DE9F0411D468C
:104C900016460F46040001D01FB107E0FBF75CFB8E
:104CA000FEE7206C10B1FBF757FBFEE7022D05D1A4
:104CB000E06B012802D0FBF74FFBFEE700F043FC5E
:104CC000FBF74AFB8046A06BE16B884208D3022DBC
:104CD00006D000244046FBF746FB2046BDE8F081A5
:104CE0002A4639462046FFF708FEA06C401C04D037
:104CF000A06C401CA0640124ECE7606A0028FAD094
:104D000004F12400FFF79EFC0028F4D0002EF2D01E
:104D100001203060EFE72DE9F04115460F46040011
:104D200001D01FB107E0FBF717FBFEE7206C10B1C5
:104D3000FBF712FBFEE700F006FCFBF70DFB064657
:104D4000A06BE0B139462046FFF7D0FEA06B401EB5
:104D5000A063606C401C04D0606C401C6064012443
:104D60000EE020690028FAD004F11000FFF76AFC79
:104D70000028F4D0002DF2D001202860EFE70024B5
:104D80003046FBF7F0FA2046A8E72DE9F0410F4640
:104D9000040001D01FB107E0FBF7DEFAFEE7206C4C
:104DA00010B1FBF7D9FAFEE700F0CDFBFBF7D4FA20
:104DB0000646A06B38B139462046E568FFF796FEF7
:104DC000E560012400E000243046FBF7CCFA2046E1
:104DD00084E710B5040006D000F03EFBA46B00F0A1
:104DE00047FB204610BDFBF7B7FAFEE710B508B148
:104DF000806B10BDFBF7B0FAFEE7314A002102EBF1
:104E0000C1035B68834203D1002042F83100704740
:104E1000491C0829F3D3704710B5040009D0FFF7E7
:104E2000ECFF206800F0A3F82046BDE8104000F039
:104E30009EB8FBF791FAFEE710B518B1806B20B170
:104E4000002010BDFBF788FAFEE7012010BD10B569
:104E500028B1816BC06B814204D1012010BDFBF7EA
:104E60007BFAFEE7002010BD10B5154B002253F869
:104E700032401CB1521C082AF9D310BD43F832103D
:104E800003EBC201486010BD70B50D46044600F04A
:104E9000E3FA616C0020491C00D16064A16C491CDC
:104EA00000D1A06400F0E4FAA06B20B9294604F117
:104EB0002400FFF7B3FB2046BDE87040EBE40000A0
:104EC000C40800202DE9F04104460025FFF71CFA34
:104ED000374E06F10801706801F1080360B93548E2
:104EE000002720F00700C1E90007334AC3E9007238
:104EF000C0E90032012070603CB10834600704D082
:104F000004F00700C0F1080004442B4A601E521E42
:104F1000904227D2264A0968083201E00A46014633
:104F20004868A04202D208680028F7D1994219D0F7
:104F300015680868106048680835001B10280DD9EE
:104F40000B1958601A484C6008305C6800E0104645
:104F500002685768A742FAD31A600360486831684C
:104F6000081A3060FFF764F92846BDE8F08110B5F3
:104F7000002817D0A0F10804FFF7C6F90C496068B3
:104F8000083100E011460A6853688342FAD3226070
:104F900007480C606168026811440160BDE8104078
:104FA000FFF746B910BD024800687047704700001F
:104FB000680200200C090020F82B010000F1080114
:104FC0004FF0FF32C0E90112C160016100210160B0
:104FD000704700210161704742684A6093688B60A6
:104FE00093685960916008610168491C01607047CD
:104FF00030B50C68621C02D000F1080202E00269C0
:1050000004E01A4653681D68A542FAD953684B60FC
:1050100099608A60516008610168491C016030BD77
:10502000D0E901128A60D0E90112516001694A6831
:10503000824201D182684A60002202610868401EF3
:105040000860704770B500244160C34D0061914213
:1050500006D8D11A8269914206D2011D286907E05B
:105060009A4203D2994201D3012403E0011DE8686A
:10507000FFF7BEFF204670BDFEB5B74D1F46034685
:105080002C680020089E002C08D08DE80E0037B157
:1050900000233A4669462046FFF7F7FDFEBDFFF7BD
:1050A00044FB01284FF0000305D000226946286820
:1050B000FFF757FCFEBD3246F8E770B50546FFF72F
:1050C0006AFAA54E0446B068844203D200F085F81F
:1050D000012000E0002028602046B46070BD9E4C96
:1050E000E068016839B1002139B1002000F0F0F822
:1050F00000F0A1F8F4E70121F6E7C0680068F5E7E1
:1051000010B500F0A9F9944C206880B99348FFF7D6
:1051100055FF92481430FFF751FF9048E06014307B
:10512000206100220C210A20FFF797FB2060BDE8D8
:10513000104000F09DB91FB5FFF7E2FF86480068F8
:1051400078B18549022200200092091DCDE90110A5
:1051500003460390D20182A18348FEF74DFF002849
:1051600002D1FBF7F9F8FEE704B010BD2DE9F047D6
:105170001E46DDF8209017460D00804612D02820EC
:10518000FFF7A0FE04000AD0FFF7BAFFC4F80080C2
:10519000C4E90657C4E90869201DFFF71AFF204635
:1051A000BDE8F087FBF7D8F8FEE76B4810B540681C
:1051B000002802D1FBF7D0F8FEE710BD10B5044679
:1051C00000F04AF9606908B1012400E0002400F011
:1051D0004FF9204610BD006A7047F8B55E4E1FE0DB
:1051E000C068C4680568201DFFF71AFF616A204681
:1051F0008847E069012813D1A0692844A84206D94C
:1052000024616060211DF068FFF7F2FE08E00020D5
:105210000346014600902A462046FFF72DFF38B18D
:10522000F06801680029DBD13169C6E90310F8BDD7
:10523000FBF792F8FEE730B585B0474D3EE0039CA2
:10524000606910B1201DFFF7EBFE04A8FFF735FFE2
:105250000246019830B1012830D002281FD003281F
:105260002CD128E00298A169034601442046FFF7AB
:10527000E9FE012822D1616A20468847E0690128B9
:105280001CD1002000900298A16900234218194601
:105290002046FFF7F1FE88B9FBF75EF8FEE70298BB
:1052A000A06128B1811813462046FFF7CBFE05E028
:1052B000FBF752F8FEE72046FFF759FE00231A4697
:1052C00001A92868FFF726FC0028B8D105B030BD39
:1052D0002DE9FC410F460546FFF716F801A8FFF738
:1052E000ECFE0446019818B1FEF7A2FFBDE8FC8170
:1052F000194E37BBA54224D8FEF79AFFF06827461F
:10530000C068C468201DFFF78BFEE069012811D139
:10531000A0692B4641193A462046FFF793FE012823
:1053200008D100200346014600902A462046FFF798
:10533000A3FE18B1616A20468847D7E7FBF70CF84F
:10534000FEE7291B3068FFF79FFDFEF771FF00287D
:10535000CCD100F077F8C9E78002002004350120A5
:10536000546D722053766300DF50000810B5031FA0
:105370004FF080741C601B1F1960191F00230B6005
:1053800014390A60091FDA1E44380A6010BD10B5CE
:105390007B484FF47A737B4A00686FF07F44B0FB20
:1053A000F3F19160B4FBF1F1D160B0FBF0F12D2489
:1053B000B4FBF1F11161B0FBF3F14FF0E020491EB5
:1053C00041610721016110BD1CB56F49087801904A
:1053D000FF20087008788DF800009DF80000694CE7
:1053E00000F0500020700720606107E06069401EF7
:1053F00060619DF8000040008DF800009DF80000FD
:105400000006F3D4207D000200F4E06060610198A2
:1054100008705E48016841F470010160016841F064
:1054200070410160FFF7B3FF00206060FAF762FF90
:105430005748016841F040410160FAF751FF0020F0
:105440001CBD704751494FF080501C390860BFF3B4
:105450004F8FBFF36F8F704710B5FAF77DFF494844
:105460004168491CBFF34F8FBFF36F8F416010BD80
:1054700044494868401E486001D1FAF774BF70473C
:1054800010B5FAF769FFFEF772FE20B13F494FF001
:1054900080501C390860BDE810400020FAF763BF57
:1054A0002DE9F047374E0446F068844200D904469F
:1054B0004FF0E0274FF00609C7F81090B969B268BD
:1054C000601E02FB00153069854200D92D1A72B6A4
:1054D000FFF71CF94FF00708C0B17D610022BA61E7
:1054E000C7F8108024B1BFF34F8F30BFBFF36F8F69
:1054F000C7F8109062B63869C0030CD5B869B168B6
:10550000281A081A401E7861641E0EE0C7F8108041
:1055100062B6BDE8F087B068B9694443611AB1FB6F
:10552000F0F4631C4343581A7861BA61FFF794FFA3
:10553000C7F810802046FFF745F8B068401E786134
:10554000BDE8F04794E710B5FAF710FF0D491028B1
:1055500009D300F1E02090F8F0030A78904202D2DB
:10556000FAF7FAFEFEE7094814380068496900F4C2
:10557000E060884202D9FAF7EFFEFEE710BD0000B6
:10558000F00100209402002000E400E020ED00E0A3
:1055900034EF00E00948804709480047FEE7FEE78E
:1055A000FEE7FEE7FEE7FEE7FEE7FEE7FEE7FEE7D3
:1055B00004480549054A064B704700003F22000891
:1055C0008901000870C8012070D0012070CC012032
:1055D00070CC012070B5B34C02074FF0800101D5AB
:1055E000218300E0618342074FF0400101D5218310
:1055F00000E0618382074FF0200101D5218300E0A4
:105600006183C1074FF0100001D0208300E0608368
:105610004FF4806525830120FEF77BFE6583BDE89E
:1056200070400120FEF775BE10B5012000F0DCF8D7
:10563000BDE810401E20FEF76CBE9B49087840F084
:105640000400087040F0080000F0CEB870B50D46B8
:10565000064600F0D7F82820FEF75BFE924C0020AB
:10566000012DE57026716071A071607001D908206C
:1056700060700320FFF7AEFF2820FEF74AFE0320EC
:10568000FFF7A8FF2820FEF744FE0320FFF7A2FF44
:105690002820FEF73EFE0220FFF79CFF0220FEF7C7
:1056A00038FE607840F0200000F09EF80420207062
:1056B000FFF7C3FFFFF7B8FF0220A070062000F03D
:1056C00093F8BDE870402820FEF723BE08B577A206
:1056D00012680092744AD3788B4200D8002150712E
:1056E00091711DF801100844C0B240F0800000F034
:1056F0007BF808BD70B51446FFF7E8FF6A4D16E069
:1057000068792979884207D300206871A979491CF2
:10571000C9B2A971FFF7DAFF20780A280BD00D284B
:105720000FD000F0B1F86879401C6871641C2078D3
:105730000028E5D170BDA879401CC1B2A971687973
:1057400001E0A9790020FFF7C1FFEFE7564908788B
:1057500020F00400087040F0080000F045B85249FD
:10576000087840F00100087040F0080000F03CB8F4
:105770004D49087820F00100087040F0080000F062
:1057800033B84949087840F00200087040F008003A
:1057900000F02AB84449087820F00200087040F070
:1057A000080000F021B8182000F01EB81C2000F0FE
:1057B0001BB870B50D4600F00700402141EAC0005B
:1057C00000F012F80024285D00F05EF8641CE4B2DA
:1057D000082CF8D370BD10B51446FFF777FF2046AC
:1057E000BDE8104000F050B810B52E4904464FF403
:1057F000807048832009FFF7EDFE04F00F00BDE83C
:105800001040E7E62DE9FC4100240122254D160257
:105810000094234631462846019400F099F801226D
:1058200097020094002339462846019400F090F82E
:1058300000940023012210212846019400F088F8EA
:1058400000940023012220212846019400F080F8D2
:1058500000940023012240212846019400F078F8AA
:1058600000940023012280212846019400F070F862
:105870006E836F83102068832020688340206883B4
:1058800080206883BDE8FC8110B5064904464FF4CA
:10589000807008832009FFF79DFE04F00F00BDE82B
:1058A000104097E600100240AC020020004010506B
:1058B000A3490844C0F38F2070472DE9F04F9A4662
:1058C000DDE909B889460346FFF7F2FFC5B20020BB
:1058D0004FF0030E0121814011EA090F28D0994EA3
:1058E00036F815400C4326F81540DF6844000EFAE0
:1058F00004F6B7430BFA04FC47EA0C07DF601F68A5
:1059000002FA04FCB74347EA0C071F60012A01D0E2
:10591000022A0DD15F6889B28F430AFA00F189B279
:105920000F435F60996808FA04F4B143214399601A
:10593000401CC0B21028CDD3BDE8F08F00B5FFF7F2
:10594000B7FF01218140804802681143016000BD1A
:10595000FCB51646DDE907C50C00074608D0FFF781
:10596000EDFFCDE900C5324621463846FFF7A5FFD9
:10597000FCBD2DE9FC4F9946DDE90BB792460D00C1
:10598000064622D0FFF7DAFF002201214FF00F0C6C
:1059900001FA02F028420DD0D00806EB8003186A05
:1059A0005407E40E0CFA04F820EA080007FA04F49D
:1059B00020431862521C102AEAD3CDE9009B5346BB
:1059C000022229463046FFF778FFBDE8FC8FF0B58C
:1059D0000E460546FFF76CFF00225A49C4B24FF04D
:1059E000010C03270CFA02F333420CD028684FEA6B
:1059F000420E07FA0EFE40EA0E00286031F814004D
:105A0000984321F81400521CD2B2102AEAD3F0BDF8
:105A1000F0B500220125032605FA02F30B4205D05A
:105A20000468570006FA07F39C430460521CD2B284
:105A3000102AF1D3F0BDF0B500220127032607FAA2
:105A400002F33C460B4208D00568530006FA03FCFB
:105A500025EA0C059C4025430560521CD2B2102A51
:105A6000EDD3F0BDF0B500220125032605FA02F3BF
:105A70000B4205D00468570006FA07F31C43046084
:105A8000521CD2B2102AF1D3F0BDF0B5002201268B
:105A90000324022706FA02F30B4209D005685300DB
:105AA00004FA03FC25EA0C0507FA03F31D4305601D
:105AB000521CD2B2102AEDD3F0BDF0B5002301275D
:105AC000032507FA03F40C4209D0C6685C0005FA06
:105AD00004FC26EA0C0602FA04F42643C6605B1CAA
